{
  "_format": "hh-sol-artifact-1",
  "contractName": "SwapTokenV2",
  "sourceName": "contracts/SwapTokenV2.sol",
  "abi": [
    {
      "anonymous": false,
      "inputs": [
        {
          "indexed": false,
          "internalType": "address",
          "name": "_tokenIn",
          "type": "address"
        },
        {
          "indexed": false,
          "internalType": "address",
          "name": "_tokenOut",
          "type": "address"
        },
        {
          "indexed": false,
          "internalType": "uint256",
          "name": "_rate",
          "type": "uint256"
        },
        {
          "indexed": false,
          "internalType": "uint32",
          "name": "_rateDecimal",
          "type": "uint32"
        }
      ],
      "name": "ChangeRate",
      "type": "event"
    },
    {
      "anonymous": false,
      "inputs": [
        {
          "indexed": true,
          "internalType": "address",
          "name": "previousOwner",
          "type": "address"
        },
        {
          "indexed": true,
          "internalType": "address",
          "name": "newOwner",
          "type": "address"
        }
      ],
      "name": "OwnershipTransferred",
      "type": "event"
    },
    {
      "anonymous": false,
      "inputs": [
        {
          "indexed": false,
          "internalType": "address",
          "name": "_tokenIn",
          "type": "address"
        },
        {
          "indexed": false,
          "internalType": "address",
          "name": "_tokenOut",
          "type": "address"
        },
        {
          "indexed": false,
          "internalType": "uint256",
          "name": "_amountIn",
          "type": "uint256"
        },
        {
          "indexed": false,
          "internalType": "uint256",
          "name": "amountOut",
          "type": "uint256"
        }
      ],
      "name": "Swap",
      "type": "event"
    },
    {
      "inputs": [],
      "name": "__Swap_init",
      "outputs": [],
      "stateMutability": "nonpayable",
      "type": "function"
    },
    {
      "inputs": [
        {
          "internalType": "address",
          "name": "_tokenIn",
          "type": "address"
        },
        {
          "internalType": "address",
          "name": "_tokenOut",
          "type": "address"
        }
      ],
      "name": "getTokenRate",
      "outputs": [
        {
          "internalType": "uint256",
          "name": "",
          "type": "uint256"
        },
        {
          "internalType": "uint32",
          "name": "",
          "type": "uint32"
        }
      ],
      "stateMutability": "view",
      "type": "function"
    },
    {
      "inputs": [],
      "name": "owner",
      "outputs": [
        {
          "internalType": "address",
          "name": "",
          "type": "address"
        }
      ],
      "stateMutability": "view",
      "type": "function"
    },
    {
      "inputs": [],
      "name": "renounceOwnership",
      "outputs": [],
      "stateMutability": "nonpayable",
      "type": "function"
    },
    {
      "inputs": [
        {
          "internalType": "address",
          "name": "_tokenIn",
          "type": "address"
        },
        {
          "internalType": "address",
          "name": "_tokenOut",
          "type": "address"
        },
        {
          "internalType": "uint256",
          "name": "_rate",
          "type": "uint256"
        },
        {
          "internalType": "uint32",
          "name": "_rateDecimal",
          "type": "uint32"
        }
      ],
      "name": "setTokenRate",
      "outputs": [],
      "stateMutability": "nonpayable",
      "type": "function"
    },
    {
      "inputs": [
        {
          "internalType": "address",
          "name": "newOwner",
          "type": "address"
        }
      ],
      "name": "transferOwnership",
      "outputs": [],
      "stateMutability": "nonpayable",
      "type": "function"
    },
    {
      "stateMutability": "payable",
      "type": "receive"
    }
  ],
  "bytecode": "0x608060405234801561001057600080fd5b50610de5806100206000396000f3fe6080604052600436106100595760003560e01c806339cda63a1461006557806349c019d71461007c5780636b77c261146100ba578063715018a6146100e35780638da5cb5b146100fa578063f2fde38b1461012557610060565b3661006057005b600080fd5b34801561007157600080fd5b5061007a61014e565b005b34801561008857600080fd5b506100a3600480360381019061009e9190610904565b61023a565b6040516100b1929190610b7f565b60405180910390f35b3480156100c657600080fd5b506100e160048036038101906100dc9190610940565b610355565b005b3480156100ef57600080fd5b506100f8610536565b005b34801561010657600080fd5b5061010f6105be565b60405161011c9190610a7f565b60405180910390f35b34801561013157600080fd5b5061014c600480360381019061014791906108db565b6105e8565b005b600060019054906101000a900460ff166101765760008054906101000a900460ff161561017f565b61017e6106e0565b5b6101be576040517f08c379a00000000000000000000000000000000000000000000000000000000081526004016101b590610b1f565b60405180910390fd5b60008060019054906101000a900460ff16159050801561020e576001600060016101000a81548160ff02191690831515021790555060016000806101000a81548160ff0219169083151502179055505b6102166106f1565b80156102375760008060016101000a81548160ff0219169083151502179055505b50565b6000806000606560008673ffffffffffffffffffffffffffffffffffffffff1673ffffffffffffffffffffffffffffffffffffffff16815260200190815260200160002060008573ffffffffffffffffffffffffffffffffffffffff1673ffffffffffffffffffffffffffffffffffffffff168152602001908152602001600020604051806040016040529081600082015481526020016001820160009054906101000a900463ffffffff1663ffffffff1663ffffffff16815250509050600081600001511161033f576040517f08c379a000000000000000000000000000000000000000000000000000000000815260040161033690610adf565b60405180910390fd5b8060000151816020015192509250509250929050565b61035d61074a565b73ffffffffffffffffffffffffffffffffffffffff1661037b6105be565b73ffffffffffffffffffffffffffffffffffffffff16146103d1576040517f08c379a00000000000000000000000000000000000000000000000000000000081526004016103c890610b3f565b60405180910390fd5b81606560008673ffffffffffffffffffffffffffffffffffffffff1673ffffffffffffffffffffffffffffffffffffffff16815260200190815260200160002060008573ffffffffffffffffffffffffffffffffffffffff1673ffffffffffffffffffffffffffffffffffffffff1681526020019081526020016000206000018190555080606560008673ffffffffffffffffffffffffffffffffffffffff1673ffffffffffffffffffffffffffffffffffffffff16815260200190815260200160002060008573ffffffffffffffffffffffffffffffffffffffff1673ffffffffffffffffffffffffffffffffffffffff16815260200190815260200160002060010160006101000a81548163ffffffff021916908363ffffffff1602179055507ff9adba2dcda7bee0d48d8b2caa840334756f5bc07e750a33328cd783e04ecc83848484846040516105289493929190610a9a565b60405180910390a150505050565b61053e61074a565b73ffffffffffffffffffffffffffffffffffffffff1661055c6105be565b73ffffffffffffffffffffffffffffffffffffffff16146105b2576040517f08c379a00000000000000000000000000000000000000000000000000000000081526004016105a990610b3f565b60405180910390fd5b6105bc6000610752565b565b6000603360009054906101000a900473ffffffffffffffffffffffffffffffffffffffff16905090565b6105f061074a565b73ffffffffffffffffffffffffffffffffffffffff1661060e6105be565b73ffffffffffffffffffffffffffffffffffffffff1614610664576040517f08c379a000000000000000000000000000000000000000000000000000000000815260040161065b90610b3f565b60405180910390fd5b600073ffffffffffffffffffffffffffffffffffffffff168173ffffffffffffffffffffffffffffffffffffffff1614156106d4576040517f08c379a00000000000000000000000000000000000000000000000000000000081526004016106cb90610aff565b60405180910390fd5b6106dd81610752565b50565b60006106eb30610818565b15905090565b600060019054906101000a900460ff16610740576040517f08c379a000000000000000000000000000000000000000000000000000000000815260040161073790610b5f565b60405180910390fd5b61074861083b565b565b600033905090565b6000603360009054906101000a900473ffffffffffffffffffffffffffffffffffffffff16905081603360006101000a81548173ffffffffffffffffffffffffffffffffffffffff021916908373ffffffffffffffffffffffffffffffffffffffff1602179055508173ffffffffffffffffffffffffffffffffffffffff168173ffffffffffffffffffffffffffffffffffffffff167f8be0079c531659141344cd1fd0a4f28419497f9722a3daafe3b4186f6b6457e060405160405180910390a35050565b6000808273ffffffffffffffffffffffffffffffffffffffff163b119050919050565b600060019054906101000a900460ff1661088a576040517f08c379a000000000000000000000000000000000000000000000000000000000815260040161088190610b5f565b60405180910390fd5b61089a61089561074a565b610752565b565b6000813590506108ab81610d6a565b92915050565b6000813590506108c081610d81565b92915050565b6000813590506108d581610d98565b92915050565b6000602082840312156108ed57600080fd5b60006108fb8482850161089c565b91505092915050565b6000806040838503121561091757600080fd5b60006109258582860161089c565b92505060206109368582860161089c565b9150509250929050565b6000806000806080858703121561095657600080fd5b60006109648782880161089c565b94505060206109758782880161089c565b9350506040610986878288016108b1565b9250506060610997878288016108c6565b91505092959194509250565b6109ac81610bb9565b82525050565b60006109bf602483610ba8565b91506109ca82610c05565b604082019050919050565b60006109e2602683610ba8565b91506109ed82610c54565b604082019050919050565b6000610a05602e83610ba8565b9150610a1082610ca3565b604082019050919050565b6000610a28602083610ba8565b9150610a3382610cf2565b602082019050919050565b6000610a4b602b83610ba8565b9150610a5682610d1b565b604082019050919050565b610a6a81610beb565b82525050565b610a7981610bf5565b82525050565b6000602082019050610a9460008301846109a3565b92915050565b6000608082019050610aaf60008301876109a3565b610abc60208301866109a3565b610ac96040830185610a61565b610ad66060830184610a70565b95945050505050565b60006020820190508181036000830152610af8816109b2565b9050919050565b60006020820190508181036000830152610b18816109d5565b9050919050565b60006020820190508181036000830152610b38816109f8565b9050919050565b60006020820190508181036000830152610b5881610a1b565b9050919050565b60006020820190508181036000830152610b7881610a3e565b9050919050565b6000604082019050610b946000830185610a61565b610ba16020830184610a70565b9392505050565b600082825260208201905092915050565b6000610bc482610bcb565b9050919050565b600073ffffffffffffffffffffffffffffffffffffffff82169050919050565b6000819050919050565b600063ffffffff82169050919050565b7f546f6b656e2072617465206d7573742062652067726561746572207468616e2060008201527f7a65726f00000000000000000000000000000000000000000000000000000000602082015250565b7f4f776e61626c653a206e6577206f776e657220697320746865207a65726f206160008201527f6464726573730000000000000000000000000000000000000000000000000000602082015250565b7f496e697469616c697a61626c653a20636f6e747261637420697320616c72656160008201527f647920696e697469616c697a6564000000000000000000000000000000000000602082015250565b7f4f776e61626c653a2063616c6c6572206973206e6f7420746865206f776e6572600082015250565b7f496e697469616c697a61626c653a20636f6e7472616374206973206e6f74206960008201527f6e697469616c697a696e67000000000000000000000000000000000000000000602082015250565b610d7381610bb9565b8114610d7e57600080fd5b50565b610d8a81610beb565b8114610d9557600080fd5b50565b610da181610bf5565b8114610dac57600080fd5b5056fea26469706673582212205ce0b6dbab1e42da2e9330d500487b7cded439f7cbabf1e784b62b53c1ba9cc864736f6c63430008040033",
  "linkReferences": {},
  "deployedLinkReferences": {}
}