{
  "_format": "hh-sol-artifact-1",
  "contractName": "ERC20Token",
  "sourceName": "contracts/ERC20Token.sol",
  "abi": [
    {
      "anonymous": false,
      "inputs": [
        {
          "indexed": true,
          "internalType": "address",
          "name": "owner",
          "type": "address"
        },
        {
          "indexed": true,
          "internalType": "address",
          "name": "spender",
          "type": "address"
        },
        {
          "indexed": false,
          "internalType": "uint256",
          "name": "value",
          "type": "uint256"
        }
      ],
      "name": "Approval",
      "type": "event"
    },
    {
      "anonymous": false,
      "inputs": [
        {
          "indexed": true,
          "internalType": "address",
          "name": "previousOwner",
          "type": "address"
        },
        {
          "indexed": true,
          "internalType": "address",
          "name": "newOwner",
          "type": "address"
        }
      ],
      "name": "OwnershipTransferred",
      "type": "event"
    },
    {
      "anonymous": false,
      "inputs": [
        {
          "indexed": true,
          "internalType": "address",
          "name": "from",
          "type": "address"
        },
        {
          "indexed": true,
          "internalType": "address",
          "name": "to",
          "type": "address"
        },
        {
          "indexed": false,
          "internalType": "uint256",
          "name": "value",
          "type": "uint256"
        }
      ],
      "name": "Transfer",
      "type": "event"
    },
    {
      "inputs": [
        {
          "internalType": "string",
          "name": "_name",
          "type": "string"
        },
        {
          "internalType": "string",
          "name": "_symbol",
          "type": "string"
        },
        {
          "internalType": "uint256",
          "name": "_supply",
          "type": "uint256"
        }
      ],
      "name": "__ERC20Token_init",
      "outputs": [],
      "stateMutability": "nonpayable",
      "type": "function"
    },
    {
      "inputs": [
        {
          "internalType": "address",
          "name": "owner",
          "type": "address"
        },
        {
          "internalType": "address",
          "name": "spender",
          "type": "address"
        }
      ],
      "name": "allowance",
      "outputs": [
        {
          "internalType": "uint256",
          "name": "",
          "type": "uint256"
        }
      ],
      "stateMutability": "view",
      "type": "function"
    },
    {
      "inputs": [
        {
          "internalType": "address",
          "name": "spender",
          "type": "address"
        },
        {
          "internalType": "uint256",
          "name": "amount",
          "type": "uint256"
        }
      ],
      "name": "approve",
      "outputs": [
        {
          "internalType": "bool",
          "name": "",
          "type": "bool"
        }
      ],
      "stateMutability": "nonpayable",
      "type": "function"
    },
    {
      "inputs": [
        {
          "internalType": "address",
          "name": "account",
          "type": "address"
        }
      ],
      "name": "balanceOf",
      "outputs": [
        {
          "internalType": "uint256",
          "name": "",
          "type": "uint256"
        }
      ],
      "stateMutability": "view",
      "type": "function"
    },
    {
      "inputs": [],
      "name": "decimals",
      "outputs": [
        {
          "internalType": "uint8",
          "name": "",
          "type": "uint8"
        }
      ],
      "stateMutability": "view",
      "type": "function"
    },
    {
      "inputs": [
        {
          "internalType": "address",
          "name": "spender",
          "type": "address"
        },
        {
          "internalType": "uint256",
          "name": "subtractedValue",
          "type": "uint256"
        }
      ],
      "name": "decreaseAllowance",
      "outputs": [
        {
          "internalType": "bool",
          "name": "",
          "type": "bool"
        }
      ],
      "stateMutability": "nonpayable",
      "type": "function"
    },
    {
      "inputs": [
        {
          "internalType": "address",
          "name": "spender",
          "type": "address"
        },
        {
          "internalType": "uint256",
          "name": "addedValue",
          "type": "uint256"
        }
      ],
      "name": "increaseAllowance",
      "outputs": [
        {
          "internalType": "bool",
          "name": "",
          "type": "bool"
        }
      ],
      "stateMutability": "nonpayable",
      "type": "function"
    },
    {
      "inputs": [
        {
          "internalType": "address",
          "name": "recipient",
          "type": "address"
        },
        {
          "internalType": "uint256",
          "name": "_amount",
          "type": "uint256"
        }
      ],
      "name": "mint",
      "outputs": [],
      "stateMutability": "nonpayable",
      "type": "function"
    },
    {
      "inputs": [],
      "name": "name",
      "outputs": [
        {
          "internalType": "string",
          "name": "",
          "type": "string"
        }
      ],
      "stateMutability": "view",
      "type": "function"
    },
    {
      "inputs": [],
      "name": "owner",
      "outputs": [
        {
          "internalType": "address",
          "name": "",
          "type": "address"
        }
      ],
      "stateMutability": "view",
      "type": "function"
    },
    {
      "inputs": [],
      "name": "renounceOwnership",
      "outputs": [],
      "stateMutability": "nonpayable",
      "type": "function"
    },
    {
      "inputs": [],
      "name": "symbol",
      "outputs": [
        {
          "internalType": "string",
          "name": "",
          "type": "string"
        }
      ],
      "stateMutability": "view",
      "type": "function"
    },
    {
      "inputs": [],
      "name": "totalSupply",
      "outputs": [
        {
          "internalType": "uint256",
          "name": "",
          "type": "uint256"
        }
      ],
      "stateMutability": "view",
      "type": "function"
    },
    {
      "inputs": [
        {
          "internalType": "address",
          "name": "to",
          "type": "address"
        },
        {
          "internalType": "uint256",
          "name": "amount",
          "type": "uint256"
        }
      ],
      "name": "transfer",
      "outputs": [
        {
          "internalType": "bool",
          "name": "",
          "type": "bool"
        }
      ],
      "stateMutability": "nonpayable",
      "type": "function"
    },
    {
      "inputs": [
        {
          "internalType": "address",
          "name": "from",
          "type": "address"
        },
        {
          "internalType": "address",
          "name": "to",
          "type": "address"
        },
        {
          "internalType": "uint256",
          "name": "amount",
          "type": "uint256"
        }
      ],
      "name": "transferFrom",
      "outputs": [
        {
          "internalType": "bool",
          "name": "",
          "type": "bool"
        }
      ],
      "stateMutability": "nonpayable",
      "type": "function"
    },
    {
      "inputs": [
        {
          "internalType": "address",
          "name": "newOwner",
          "type": "address"
        }
      ],
      "name": "transferOwnership",
      "outputs": [],
      "stateMutability": "nonpayable",
      "type": "function"
    }
  ],
  "bytecode": "0x608060405234801561001057600080fd5b50612041806100206000396000f3fe608060405234801561001057600080fd5b50600436106101005760003560e01c806370a0823111610097578063a457c2d711610066578063a457c2d71461029d578063a9059cbb146102cd578063dd62ed3e146102fd578063f2fde38b1461032d57610100565b806370a0823114610227578063715018a6146102575780638da5cb5b1461026157806395d89b411461027f57610100565b806323b872dd116100d357806323b872dd1461018d578063313ce567146101bd57806339509351146101db57806340c10f191461020b57610100565b806306fdde0314610105578063095ea7b31461012357806318160ddd14610153578063228eed3114610171575b600080fd5b61010d610349565b60405161011a9190611863565b60405180910390f35b61013d60048036038101906101389190611559565b6103db565b60405161014a9190611848565b60405180910390f35b61015b6103fe565b6040516101689190611a05565b60405180910390f35b61018b60048036038101906101869190611595565b610408565b005b6101a760048036038101906101a2919061150a565b61050b565b6040516101b49190611848565b60405180910390f35b6101c561053a565b6040516101d29190611a20565b60405180910390f35b6101f560048036038101906101f09190611559565b610543565b6040516102029190611848565b60405180910390f35b61022560048036038101906102209190611559565b6105ed565b005b610241600480360381019061023c91906114a5565b610677565b60405161024e9190611a05565b60405180910390f35b61025f6106c0565b005b610269610748565b604051610276919061182d565b60405180910390f35b610287610772565b6040516102949190611863565b60405180910390f35b6102b760048036038101906102b29190611559565b610804565b6040516102c49190611848565b60405180910390f35b6102e760048036038101906102e29190611559565b6108ee565b6040516102f49190611848565b60405180910390f35b610317600480360381019061031291906114ce565b610911565b6040516103249190611a05565b60405180910390f35b610347600480360381019061034291906114a5565b610998565b005b60606036805461035890611b9a565b80601f016020809104026020016040519081016040528092919081815260200182805461038490611b9a565b80156103d15780601f106103a6576101008083540402835291602001916103d1565b820191906000526020600020905b8154815290600101906020018083116103b457829003601f168201915b5050505050905090565b6000806103e6610a90565b90506103f3818585610a98565b600191505092915050565b6000603554905090565b600060019054906101000a900460ff166104305760008054906101000a900460ff1615610439565b610438610c63565b5b610478576040517f08c379a000000000000000000000000000000000000000000000000000000000815260040161046f90611925565b60405180910390fd5b60008060019054906101000a900460ff1615905080156104c8576001600060016101000a81548160ff02191690831515021790555060016000806101000a81548160ff0219169083151502179055505b6104d28484610c74565b6104da610cd1565b6104e433836105ed565b80156105055760008060016101000a81548160ff0219169083151502179055505b50505050565b600080610516610a90565b9050610523858285610d2a565b61052e858585610db6565b60019150509392505050565b60006012905090565b60008061054e610a90565b90506105e2818585603460008673ffffffffffffffffffffffffffffffffffffffff1673ffffffffffffffffffffffffffffffffffffffff16815260200190815260200160002060008973ffffffffffffffffffffffffffffffffffffffff1673ffffffffffffffffffffffffffffffffffffffff168152602001908152602001600020546105dd9190611aad565b610a98565b600191505092915050565b6105f5610a90565b73ffffffffffffffffffffffffffffffffffffffff16610613610748565b73ffffffffffffffffffffffffffffffffffffffff1614610669576040517f08c379a000000000000000000000000000000000000000000000000000000000815260040161066090611945565b60405180910390fd5b610673828261103a565b5050565b6000603360008373ffffffffffffffffffffffffffffffffffffffff1673ffffffffffffffffffffffffffffffffffffffff168152602001908152602001600020549050919050565b6106c8610a90565b73ffffffffffffffffffffffffffffffffffffffff166106e6610748565b73ffffffffffffffffffffffffffffffffffffffff161461073c576040517f08c379a000000000000000000000000000000000000000000000000000000000815260040161073390611945565b60405180910390fd5b610746600061119b565b565b6000606560009054906101000a900473ffffffffffffffffffffffffffffffffffffffff16905090565b60606037805461078190611b9a565b80601f01602080910402602001604051908101604052809291908181526020018280546107ad90611b9a565b80156107fa5780601f106107cf576101008083540402835291602001916107fa565b820191906000526020600020905b8154815290600101906020018083116107dd57829003601f168201915b5050505050905090565b60008061080f610a90565b90506000603460008373ffffffffffffffffffffffffffffffffffffffff1673ffffffffffffffffffffffffffffffffffffffff16815260200190815260200160002060008673ffffffffffffffffffffffffffffffffffffffff1673ffffffffffffffffffffffffffffffffffffffff168152602001908152602001600020549050838110156108d5576040517f08c379a00000000000000000000000000000000000000000000000000000000081526004016108cc906119c5565b60405180910390fd5b6108e28286868403610a98565b60019250505092915050565b6000806108f9610a90565b9050610906818585610db6565b600191505092915050565b6000603460008473ffffffffffffffffffffffffffffffffffffffff1673ffffffffffffffffffffffffffffffffffffffff16815260200190815260200160002060008373ffffffffffffffffffffffffffffffffffffffff1673ffffffffffffffffffffffffffffffffffffffff16815260200190815260200160002054905092915050565b6109a0610a90565b73ffffffffffffffffffffffffffffffffffffffff166109be610748565b73ffffffffffffffffffffffffffffffffffffffff1614610a14576040517f08c379a0000000000000000000000000000000000000000000000000000000008152600401610a0b90611945565b60405180910390fd5b600073ffffffffffffffffffffffffffffffffffffffff168173ffffffffffffffffffffffffffffffffffffffff161415610a84576040517f08c379a0000000000000000000000000000000000000000000000000000000008152600401610a7b906118a5565b60405180910390fd5b610a8d8161119b565b50565b600033905090565b600073ffffffffffffffffffffffffffffffffffffffff168373ffffffffffffffffffffffffffffffffffffffff161415610b08576040517f08c379a0000000000000000000000000000000000000000000000000000000008152600401610aff90611985565b60405180910390fd5b600073ffffffffffffffffffffffffffffffffffffffff168273ffffffffffffffffffffffffffffffffffffffff161415610b78576040517f08c379a0000000000000000000000000000000000000000000000000000000008152600401610b6f906118c5565b60405180910390fd5b80603460008573ffffffffffffffffffffffffffffffffffffffff1673ffffffffffffffffffffffffffffffffffffffff16815260200190815260200160002060008473ffffffffffffffffffffffffffffffffffffffff1673ffffffffffffffffffffffffffffffffffffffff168152602001908152602001600020819055508173ffffffffffffffffffffffffffffffffffffffff168373ffffffffffffffffffffffffffffffffffffffff167f8c5be1e5ebec7d5bd14f71427d1e84f3dd0314c0f7b2291e5b200ac8c7c3b92583604051610c569190611a05565b60405180910390a3505050565b6000610c6e30611261565b15905090565b600060019054906101000a900460ff16610cc3576040517f08c379a0000000000000000000000000000000000000000000000000000000008152600401610cba906119a5565b60405180910390fd5b610ccd8282611284565b5050565b600060019054906101000a900460ff16610d20576040517f08c379a0000000000000000000000000000000000000000000000000000000008152600401610d17906119a5565b60405180910390fd5b610d28611305565b565b6000610d368484610911565b90507fffffffffffffffffffffffffffffffffffffffffffffffffffffffffffffffff8114610db05781811015610da2576040517f08c379a0000000000000000000000000000000000000000000000000000000008152600401610d99906118e5565b60405180910390fd5b610daf8484848403610a98565b5b50505050565b600073ffffffffffffffffffffffffffffffffffffffff168373ffffffffffffffffffffffffffffffffffffffff161415610e26576040517f08c379a0000000000000000000000000000000000000000000000000000000008152600401610e1d90611965565b60405180910390fd5b600073ffffffffffffffffffffffffffffffffffffffff168273ffffffffffffffffffffffffffffffffffffffff161415610e96576040517f08c379a0000000000000000000000000000000000000000000000000000000008152600401610e8d90611885565b60405180910390fd5b610ea1838383611366565b6000603360008573ffffffffffffffffffffffffffffffffffffffff1673ffffffffffffffffffffffffffffffffffffffff16815260200190815260200160002054905081811015610f28576040517f08c379a0000000000000000000000000000000000000000000000000000000008152600401610f1f90611905565b60405180910390fd5b818103603360008673ffffffffffffffffffffffffffffffffffffffff1673ffffffffffffffffffffffffffffffffffffffff1681526020019081526020016000208190555081603360008573ffffffffffffffffffffffffffffffffffffffff1673ffffffffffffffffffffffffffffffffffffffff1681526020019081526020016000206000828254610fbd9190611aad565b925050819055508273ffffffffffffffffffffffffffffffffffffffff168473ffffffffffffffffffffffffffffffffffffffff167fddf252ad1be2c89b69c2b068fc378daa952ba7f163c4a11628f55a4df523b3ef846040516110219190611a05565b60405180910390a361103484848461136b565b50505050565b600073ffffffffffffffffffffffffffffffffffffffff168273ffffffffffffffffffffffffffffffffffffffff1614156110aa576040517f08c379a00000000000000000000000000000000000000000000000000000000081526004016110a1906119e5565b60405180910390fd5b6110b660008383611366565b80603560008282546110c89190611aad565b9250508190555080603360008473ffffffffffffffffffffffffffffffffffffffff1673ffffffffffffffffffffffffffffffffffffffff168152602001908152602001600020600082825461111e9190611aad565b925050819055508173ffffffffffffffffffffffffffffffffffffffff16600073ffffffffffffffffffffffffffffffffffffffff167fddf252ad1be2c89b69c2b068fc378daa952ba7f163c4a11628f55a4df523b3ef836040516111839190611a05565b60405180910390a36111976000838361136b565b5050565b6000606560009054906101000a900473ffffffffffffffffffffffffffffffffffffffff16905081606560006101000a81548173ffffffffffffffffffffffffffffffffffffffff021916908373ffffffffffffffffffffffffffffffffffffffff1602179055508173ffffffffffffffffffffffffffffffffffffffff168173ffffffffffffffffffffffffffffffffffffffff167f8be0079c531659141344cd1fd0a4f28419497f9722a3daafe3b4186f6b6457e060405160405180910390a35050565b6000808273ffffffffffffffffffffffffffffffffffffffff163b119050919050565b600060019054906101000a900460ff166112d3576040517f08c379a00000000000000000000000000000000000000000000000000000000081526004016112ca906119a5565b60405180910390fd5b81603690805190602001906112e9929190611370565b508060379080519060200190611300929190611370565b505050565b600060019054906101000a900460ff16611354576040517f08c379a000000000000000000000000000000000000000000000000000000000815260040161134b906119a5565b60405180910390fd5b61136461135f610a90565b61119b565b565b505050565b505050565b82805461137c90611b9a565b90600052602060002090601f01602090048101928261139e57600085556113e5565b82601f106113b757805160ff19168380011785556113e5565b828001600101855582156113e5579182015b828111156113e45782518255916020019190600101906113c9565b5b5090506113f291906113f6565b5090565b5b8082111561140f5760008160009055506001016113f7565b5090565b600061142661142184611a60565b611a3b565b90508281526020810184848401111561143e57600080fd5b611449848285611b58565b509392505050565b60008135905061146081611fdd565b92915050565b600082601f83011261147757600080fd5b8135611487848260208601611413565b91505092915050565b60008135905061149f81611ff4565b92915050565b6000602082840312156114b757600080fd5b60006114c584828501611451565b91505092915050565b600080604083850312156114e157600080fd5b60006114ef85828601611451565b925050602061150085828601611451565b9150509250929050565b60008060006060848603121561151f57600080fd5b600061152d86828701611451565b935050602061153e86828701611451565b925050604061154f86828701611490565b9150509250925092565b6000806040838503121561156c57600080fd5b600061157a85828601611451565b925050602061158b85828601611490565b9150509250929050565b6000806000606084860312156115aa57600080fd5b600084013567ffffffffffffffff8111156115c457600080fd5b6115d086828701611466565b935050602084013567ffffffffffffffff8111156115ed57600080fd5b6115f986828701611466565b925050604061160a86828701611490565b9150509250925092565b61161d81611b03565b82525050565b61162c81611b15565b82525050565b600061163d82611a91565b6116478185611a9c565b9350611657818560208601611b67565b61166081611c8a565b840191505092915050565b6000611678602383611a9c565b915061168382611c9b565b604082019050919050565b600061169b602683611a9c565b91506116a682611cea565b604082019050919050565b60006116be602283611a9c565b91506116c982611d39565b604082019050919050565b60006116e1601d83611a9c565b91506116ec82611d88565b602082019050919050565b6000611704602683611a9c565b915061170f82611db1565b604082019050919050565b6000611727602e83611a9c565b915061173282611e00565b604082019050919050565b600061174a602083611a9c565b915061175582611e4f565b602082019050919050565b600061176d602583611a9c565b915061177882611e78565b604082019050919050565b6000611790602483611a9c565b915061179b82611ec7565b604082019050919050565b60006117b3602b83611a9c565b91506117be82611f16565b604082019050919050565b60006117d6602583611a9c565b91506117e182611f65565b604082019050919050565b60006117f9601f83611a9c565b915061180482611fb4565b602082019050919050565b61181881611b41565b82525050565b61182781611b4b565b82525050565b60006020820190506118426000830184611614565b92915050565b600060208201905061185d6000830184611623565b92915050565b6000602082019050818103600083015261187d8184611632565b905092915050565b6000602082019050818103600083015261189e8161166b565b9050919050565b600060208201905081810360008301526118be8161168e565b9050919050565b600060208201905081810360008301526118de816116b1565b9050919050565b600060208201905081810360008301526118fe816116d4565b9050919050565b6000602082019050818103600083015261191e816116f7565b9050919050565b6000602082019050818103600083015261193e8161171a565b9050919050565b6000602082019050818103600083015261195e8161173d565b9050919050565b6000602082019050818103600083015261197e81611760565b9050919050565b6000602082019050818103600083015261199e81611783565b9050919050565b600060208201905081810360008301526119be816117a6565b9050919050565b600060208201905081810360008301526119de816117c9565b9050919050565b600060208201905081810360008301526119fe816117ec565b9050919050565b6000602082019050611a1a600083018461180f565b92915050565b6000602082019050611a35600083018461181e565b92915050565b6000611a45611a56565b9050611a518282611bcc565b919050565b6000604051905090565b600067ffffffffffffffff821115611a7b57611a7a611c5b565b5b611a8482611c8a565b9050602081019050919050565b600081519050919050565b600082825260208201905092915050565b6000611ab882611b41565b9150611ac383611b41565b9250827fffffffffffffffffffffffffffffffffffffffffffffffffffffffffffffffff03821115611af857611af7611bfd565b5b828201905092915050565b6000611b0e82611b21565b9050919050565b60008115159050919050565b600073ffffffffffffffffffffffffffffffffffffffff82169050919050565b6000819050919050565b600060ff82169050919050565b82818337600083830152505050565b60005b83811015611b85578082015181840152602081019050611b6a565b83811115611b94576000848401525b50505050565b60006002820490506001821680611bb257607f821691505b60208210811415611bc657611bc5611c2c565b5b50919050565b611bd582611c8a565b810181811067ffffffffffffffff82111715611bf457611bf3611c5b565b5b80604052505050565b7f4e487b7100000000000000000000000000000000000000000000000000000000600052601160045260246000fd5b7f4e487b7100000000000000000000000000000000000000000000000000000000600052602260045260246000fd5b7f4e487b7100000000000000000000000000000000000000000000000000000000600052604160045260246000fd5b6000601f19601f8301169050919050565b7f45524332303a207472616e7366657220746f20746865207a65726f206164647260008201527f6573730000000000000000000000000000000000000000000000000000000000602082015250565b7f4f776e61626c653a206e6577206f776e657220697320746865207a65726f206160008201527f6464726573730000000000000000000000000000000000000000000000000000602082015250565b7f45524332303a20617070726f766520746f20746865207a65726f20616464726560008201527f7373000000000000000000000000000000000000000000000000000000000000602082015250565b7f45524332303a20696e73756666696369656e7420616c6c6f77616e6365000000600082015250565b7f45524332303a207472616e7366657220616d6f756e742065786365656473206260008201527f616c616e63650000000000000000000000000000000000000000000000000000602082015250565b7f496e697469616c697a61626c653a20636f6e747261637420697320616c72656160008201527f647920696e697469616c697a6564000000000000000000000000000000000000602082015250565b7f4f776e61626c653a2063616c6c6572206973206e6f7420746865206f776e6572600082015250565b7f45524332303a207472616e736665722066726f6d20746865207a65726f20616460008201527f6472657373000000000000000000000000000000000000000000000000000000602082015250565b7f45524332303a20617070726f76652066726f6d20746865207a65726f2061646460008201527f7265737300000000000000000000000000000000000000000000000000000000602082015250565b7f496e697469616c697a61626c653a20636f6e7472616374206973206e6f74206960008201527f6e697469616c697a696e67000000000000000000000000000000000000000000602082015250565b7f45524332303a2064656372656173656420616c6c6f77616e63652062656c6f7760008201527f207a65726f000000000000000000000000000000000000000000000000000000602082015250565b7f45524332303a206d696e7420746f20746865207a65726f206164647265737300600082015250565b611fe681611b03565b8114611ff157600080fd5b50565b611ffd81611b41565b811461200857600080fd5b5056fea26469706673582212209e9c1f0a3ab9a3fc73868feb61b2b47ee177d30645c28084097cd5cda29f26f864736f6c63430008040033",
  "linkReferences": {},
  "deployedLinkReferences": {}
}