{
  "_format": "hh-sol-artifact-1",
  "contractName": "SwapToken",
  "sourceName": "contracts/SwapToken.sol",
  "abi": [
    {
      "anonymous": false,
      "inputs": [
        {
          "indexed": false,
          "internalType": "address",
          "name": "_tokenIn",
          "type": "address"
        },
        {
          "indexed": false,
          "internalType": "address",
          "name": "_tokenOut",
          "type": "address"
        },
        {
          "indexed": false,
          "internalType": "uint256",
          "name": "_rate",
          "type": "uint256"
        },
        {
          "indexed": false,
          "internalType": "uint32",
          "name": "_rateDecimal",
          "type": "uint32"
        }
      ],
      "name": "ChangeRate",
      "type": "event"
    },
    {
      "anonymous": false,
      "inputs": [
        {
          "indexed": true,
          "internalType": "address",
          "name": "previousOwner",
          "type": "address"
        },
        {
          "indexed": true,
          "internalType": "address",
          "name": "newOwner",
          "type": "address"
        }
      ],
      "name": "OwnershipTransferred",
      "type": "event"
    },
    {
      "anonymous": false,
      "inputs": [
        {
          "indexed": false,
          "internalType": "address",
          "name": "_tokenIn",
          "type": "address"
        },
        {
          "indexed": false,
          "internalType": "address",
          "name": "_tokenOut",
          "type": "address"
        },
        {
          "indexed": false,
          "internalType": "uint256",
          "name": "_amountIn",
          "type": "uint256"
        },
        {
          "indexed": false,
          "internalType": "uint256",
          "name": "amountOut",
          "type": "uint256"
        }
      ],
      "name": "Swap",
      "type": "event"
    },
    {
      "inputs": [],
      "name": "__Swap_init",
      "outputs": [],
      "stateMutability": "nonpayable",
      "type": "function"
    },
    {
      "inputs": [
        {
          "internalType": "address",
          "name": "_tokenIn",
          "type": "address"
        },
        {
          "internalType": "address",
          "name": "_tokenOut",
          "type": "address"
        }
      ],
      "name": "getTokenRate",
      "outputs": [
        {
          "internalType": "uint256",
          "name": "",
          "type": "uint256"
        },
        {
          "internalType": "uint32",
          "name": "",
          "type": "uint32"
        }
      ],
      "stateMutability": "view",
      "type": "function"
    },
    {
      "inputs": [],
      "name": "owner",
      "outputs": [
        {
          "internalType": "address",
          "name": "",
          "type": "address"
        }
      ],
      "stateMutability": "view",
      "type": "function"
    },
    {
      "inputs": [],
      "name": "renounceOwnership",
      "outputs": [],
      "stateMutability": "nonpayable",
      "type": "function"
    },
    {
      "inputs": [
        {
          "internalType": "address",
          "name": "_tokenIn",
          "type": "address"
        },
        {
          "internalType": "address",
          "name": "_tokenOut",
          "type": "address"
        },
        {
          "internalType": "uint256",
          "name": "_rate",
          "type": "uint256"
        },
        {
          "internalType": "uint32",
          "name": "_rateDecimal",
          "type": "uint32"
        }
      ],
      "name": "setTokenRate",
      "outputs": [],
      "stateMutability": "nonpayable",
      "type": "function"
    },
    {
      "inputs": [
        {
          "internalType": "address",
          "name": "_tokenIn",
          "type": "address"
        },
        {
          "internalType": "address",
          "name": "_tokenOut",
          "type": "address"
        },
        {
          "internalType": "uint256",
          "name": "_amountIn",
          "type": "uint256"
        }
      ],
      "name": "swap",
      "outputs": [],
      "stateMutability": "payable",
      "type": "function"
    },
    {
      "inputs": [
        {
          "internalType": "address",
          "name": "newOwner",
          "type": "address"
        }
      ],
      "name": "transferOwnership",
      "outputs": [],
      "stateMutability": "nonpayable",
      "type": "function"
    },
    {
      "stateMutability": "payable",
      "type": "receive"
    }
  ],
  "bytecode": "0x608060405234801561001057600080fd5b50611e8a806100206000396000f3fe6080604052600436106100745760003560e01c8063715018a61161004e578063715018a6146100fe5780638da5cb5b14610115578063df791e5014610140578063f2fde38b1461015c5761007b565b806339cda63a1461008057806349c019d7146100975780636b77c261146100d55761007b565b3661007b57005b600080fd5b34801561008c57600080fd5b50610095610185565b005b3480156100a357600080fd5b506100be60048036038101906100b9919061110d565b610271565b6040516100cc929190611755565b60405180910390f35b3480156100e157600080fd5b506100fc60048036038101906100f79190611198565b61038c565b005b34801561010a57600080fd5b5061011361056d565b005b34801561012157600080fd5b5061012a6105f5565b60405161013791906114ae565b60405180910390f35b61015a60048036038101906101559190611149565b61061f565b005b34801561016857600080fd5b50610183600480360381019061017e91906110e4565b6108e2565b005b600060019054906101000a900460ff166101ad5760008054906101000a900460ff16156101b6565b6101b56109da565b5b6101f5576040517f08c379a00000000000000000000000000000000000000000000000000000000081526004016101ec90611635565b60405180910390fd5b60008060019054906101000a900460ff161590508015610245576001600060016101000a81548160ff02191690831515021790555060016000806101000a81548160ff0219169083151502179055505b61024d6109eb565b801561026e5760008060016101000a81548160ff0219169083151502179055505b50565b6000806000606560008673ffffffffffffffffffffffffffffffffffffffff1673ffffffffffffffffffffffffffffffffffffffff16815260200190815260200160002060008573ffffffffffffffffffffffffffffffffffffffff1673ffffffffffffffffffffffffffffffffffffffff168152602001908152602001600020604051806040016040529081600082015481526020016001820160009054906101000a900463ffffffff1663ffffffff1663ffffffff168152505090506000816000015111610376576040517f08c379a000000000000000000000000000000000000000000000000000000000815260040161036d90611615565b60405180910390fd5b8060000151816020015192509250509250929050565b610394610a44565b73ffffffffffffffffffffffffffffffffffffffff166103b26105f5565b73ffffffffffffffffffffffffffffffffffffffff1614610408576040517f08c379a00000000000000000000000000000000000000000000000000000000081526004016103ff90611655565b60405180910390fd5b81606560008673ffffffffffffffffffffffffffffffffffffffff1673ffffffffffffffffffffffffffffffffffffffff16815260200190815260200160002060008573ffffffffffffffffffffffffffffffffffffffff1673ffffffffffffffffffffffffffffffffffffffff1681526020019081526020016000206000018190555080606560008673ffffffffffffffffffffffffffffffffffffffff1673ffffffffffffffffffffffffffffffffffffffff16815260200190815260200160002060008573ffffffffffffffffffffffffffffffffffffffff1673ffffffffffffffffffffffffffffffffffffffff16815260200190815260200160002060010160006101000a81548163ffffffff021916908363ffffffff1602179055507ff9adba2dcda7bee0d48d8b2caa840334756f5bc07e750a33328cd783e04ecc838484848460405161055f9493929190611545565b60405180910390a150505050565b610575610a44565b73ffffffffffffffffffffffffffffffffffffffff166105936105f5565b73ffffffffffffffffffffffffffffffffffffffff16146105e9576040517f08c379a00000000000000000000000000000000000000000000000000000000081526004016105e090611655565b60405180910390fd5b6105f36000610a4c565b565b6000603360009054906101000a900473ffffffffffffffffffffffffffffffffffffffff16905090565b6000808373ffffffffffffffffffffffffffffffffffffffff168573ffffffffffffffffffffffffffffffffffffffff161415610691576040517f08c379a0000000000000000000000000000000000000000000000000000000008152600401610688906116d5565b60405180910390fd5b600073ffffffffffffffffffffffffffffffffffffffff168573ffffffffffffffffffffffffffffffffffffffff1614156107115760003411610709576040517f08c379a000000000000000000000000000000000000000000000000000000000815260040161070090611715565b60405180910390fd5b349050610758565b60008311610754576040517f08c379a000000000000000000000000000000000000000000000000000000000815260040161074b90611675565b60405180910390fd5b8290505b6000606560008773ffffffffffffffffffffffffffffffffffffffff1673ffffffffffffffffffffffffffffffffffffffff16815260200190815260200160002060008673ffffffffffffffffffffffffffffffffffffffff1673ffffffffffffffffffffffffffffffffffffffff168152602001908152602001600020604051806040016040529081600082015481526020016001820160009054906101000a900463ffffffff1663ffffffff1663ffffffff16815250509050600081600001511161085a576040517f08c379a000000000000000000000000000000000000000000000000000000000815260040161085190611615565b60405180910390fd5b8060200151600a61086b9190611834565b81600001518361087b9190611952565b61088591906117b0565b9250610892863384610b12565b61089d853385610b85565b7ffa2dda1cc1b86e41239702756b13effbc1a092b5c57e3ad320fbe4f3b13fe235868684866040516108d29493929190611500565b60405180910390a1505050505050565b6108ea610a44565b73ffffffffffffffffffffffffffffffffffffffff166109086105f5565b73ffffffffffffffffffffffffffffffffffffffff161461095e576040517f08c379a000000000000000000000000000000000000000000000000000000000815260040161095590611655565b60405180910390fd5b600073ffffffffffffffffffffffffffffffffffffffff168173ffffffffffffffffffffffffffffffffffffffff1614156109ce576040517f08c379a00000000000000000000000000000000000000000000000000000000081526004016109c5906115d5565b60405180910390fd5b6109d781610a4c565b50565b60006109e530610ca3565b15905090565b600060019054906101000a900460ff16610a3a576040517f08c379a0000000000000000000000000000000000000000000000000000000008152600401610a31906116b5565b60405180910390fd5b610a42610cc6565b565b600033905090565b6000603360009054906101000a900473ffffffffffffffffffffffffffffffffffffffff16905081603360006101000a81548173ffffffffffffffffffffffffffffffffffffffff021916908373ffffffffffffffffffffffffffffffffffffffff1602179055508173ffffffffffffffffffffffffffffffffffffffff168173ffffffffffffffffffffffffffffffffffffffff167f8be0079c531659141344cd1fd0a4f28419497f9722a3daafe3b4186f6b6457e060405160405180910390a35050565b600073ffffffffffffffffffffffffffffffffffffffff168373ffffffffffffffffffffffffffffffffffffffff161415610b4c57610b80565b6000839050610b7e8330848473ffffffffffffffffffffffffffffffffffffffff16610d27909392919063ffffffff16565b505b505050565b600073ffffffffffffffffffffffffffffffffffffffff168373ffffffffffffffffffffffffffffffffffffffff161415610c6c5760008273ffffffffffffffffffffffffffffffffffffffff1682604051610be090611499565b60006040518083038185875af1925050503d8060008114610c1d576040519150601f19603f3d011682016040523d82523d6000602084013e610c22565b606091505b5050905080610c66576040517f08c379a0000000000000000000000000000000000000000000000000000000008152600401610c5d90611735565b60405180910390fd5b50610c9e565b6000839050610c9c83838373ffffffffffffffffffffffffffffffffffffffff16610db09092919063ffffffff16565b505b505050565b6000808273ffffffffffffffffffffffffffffffffffffffff163b119050919050565b600060019054906101000a900460ff16610d15576040517f08c379a0000000000000000000000000000000000000000000000000000000008152600401610d0c906116b5565b60405180910390fd5b610d25610d20610a44565b610a4c565b565b610daa846323b872dd60e01b858585604051602401610d48939291906114c9565b604051602081830303815290604052907bffffffffffffffffffffffffffffffffffffffffffffffffffffffff19166020820180517bffffffffffffffffffffffffffffffffffffffffffffffffffffffff8381831617835250505050610e36565b50505050565b610e318363a9059cbb60e01b8484604051602401610dcf92919061158a565b604051602081830303815290604052907bffffffffffffffffffffffffffffffffffffffffffffffffffffffff19166020820180517bffffffffffffffffffffffffffffffffffffffffffffffffffffffff8381831617835250505050610e36565b505050565b6000610e98826040518060400160405280602081526020017f5361666545524332303a206c6f772d6c6576656c2063616c6c206661696c65648152508573ffffffffffffffffffffffffffffffffffffffff16610efd9092919063ffffffff16565b9050600081511115610ef85780806020019051810190610eb891906111fb565b610ef7576040517f08c379a0000000000000000000000000000000000000000000000000000000008152600401610eee906116f5565b60405180910390fd5b5b505050565b6060610f0c8484600085610f15565b90509392505050565b606082471015610f5a576040517f08c379a0000000000000000000000000000000000000000000000000000000008152600401610f51906115f5565b60405180910390fd5b610f6385610ca3565b610fa2576040517f08c379a0000000000000000000000000000000000000000000000000000000008152600401610f9990611695565b60405180910390fd5b6000808673ffffffffffffffffffffffffffffffffffffffff168587604051610fcb9190611482565b60006040518083038185875af1925050503d8060008114611008576040519150601f19603f3d011682016040523d82523d6000602084013e61100d565b606091505b509150915061101d828286611029565b92505050949350505050565b6060831561103957829050611089565b60008351111561104c5782518084602001fd5b816040517f08c379a000000000000000000000000000000000000000000000000000000000815260040161108091906115b3565b60405180910390fd5b9392505050565b60008135905061109f81611df8565b92915050565b6000815190506110b481611e0f565b92915050565b6000813590506110c981611e26565b92915050565b6000813590506110de81611e3d565b92915050565b6000602082840312156110f657600080fd5b600061110484828501611090565b91505092915050565b6000806040838503121561112057600080fd5b600061112e85828601611090565b925050602061113f85828601611090565b9150509250929050565b60008060006060848603121561115e57600080fd5b600061116c86828701611090565b935050602061117d86828701611090565b925050604061118e868287016110ba565b9150509250925092565b600080600080608085870312156111ae57600080fd5b60006111bc87828801611090565b94505060206111cd87828801611090565b93505060406111de878288016110ba565b92505060606111ef878288016110cf565b91505092959194509250565b60006020828403121561120d57600080fd5b600061121b848285016110a5565b91505092915050565b61122d816119ac565b82525050565b600061123e8261177e565b6112488185611794565b9350611258818560208601611a04565b80840191505092915050565b600061126f82611789565b611279818561179f565b9350611289818560208601611a04565b61129281611a95565b840191505092915050565b60006112aa60268361179f565b91506112b582611ab3565b604082019050919050565b60006112cd60268361179f565b91506112d882611b02565b604082019050919050565b60006112f060258361179f565b91506112fb82611b51565b604082019050919050565b6000611313602e8361179f565b915061131e82611ba0565b604082019050919050565b600061133660208361179f565b915061134182611bef565b602082019050919050565b600061135960278361179f565b915061136482611c18565b604082019050919050565b600061137c600083611794565b915061138782611c67565b600082019050919050565b600061139f601d8361179f565b91506113aa82611c6a565b602082019050919050565b60006113c2602b8361179f565b91506113cd82611c93565b604082019050919050565b60006113e560258361179f565b91506113f082611ce2565b604082019050919050565b6000611408602a8361179f565b915061141382611d31565b604082019050919050565b600061142b60278361179f565b915061143682611d80565b604082019050919050565b600061144e601e8361179f565b915061145982611dcf565b602082019050919050565b61146d816119ea565b82525050565b61147c816119f4565b82525050565b600061148e8284611233565b915081905092915050565b60006114a48261136f565b9150819050919050565b60006020820190506114c36000830184611224565b92915050565b60006060820190506114de6000830186611224565b6114eb6020830185611224565b6114f86040830184611464565b949350505050565b60006080820190506115156000830187611224565b6115226020830186611224565b61152f6040830185611464565b61153c6060830184611464565b95945050505050565b600060808201905061155a6000830187611224565b6115676020830186611224565b6115746040830185611464565b6115816060830184611473565b95945050505050565b600060408201905061159f6000830185611224565b6115ac6020830184611464565b9392505050565b600060208201905081810360008301526115cd8184611264565b905092915050565b600060208201905081810360008301526115ee8161129d565b9050919050565b6000602082019050818103600083015261160e816112c0565b9050919050565b6000602082019050818103600083015261162e816112e3565b9050919050565b6000602082019050818103600083015261164e81611306565b9050919050565b6000602082019050818103600083015261166e81611329565b9050919050565b6000602082019050818103600083015261168e8161134c565b9050919050565b600060208201905081810360008301526116ae81611392565b9050919050565b600060208201905081810360008301526116ce816113b5565b9050919050565b600060208201905081810360008301526116ee816113d8565b9050919050565b6000602082019050818103600083015261170e816113fb565b9050919050565b6000602082019050818103600083015261172e8161141e565b9050919050565b6000602082019050818103600083015261174e81611441565b9050919050565b600060408201905061176a6000830185611464565b6117776020830184611473565b9392505050565b600081519050919050565b600081519050919050565b600081905092915050565b600082825260208201905092915050565b60006117bb826119ea565b91506117c6836119ea565b9250826117d6576117d5611a66565b5b828204905092915050565b6000808291508390505b600185111561182b5780860481111561180757611806611a37565b5b60018516156118165780820291505b808102905061182485611aa6565b94506117eb565b94509492505050565b600061183f826119ea565b915061184a836119f4565b92506118777fffffffffffffffffffffffffffffffffffffffffffffffffffffffffffffffff848461187f565b905092915050565b60008261188f576001905061194b565b8161189d576000905061194b565b81600181146118b357600281146118bd576118ec565b600191505061194b565b60ff8411156118cf576118ce611a37565b5b8360020a9150848211156118e6576118e5611a37565b5b5061194b565b5060208310610133831016604e8410600b84101617156119215782820a90508381111561191c5761191b611a37565b5b61194b565b61192e84848460016117e1565b9250905081840481111561194557611944611a37565b5b81810290505b9392505050565b600061195d826119ea565b9150611968836119ea565b9250817fffffffffffffffffffffffffffffffffffffffffffffffffffffffffffffffff04831182151516156119a1576119a0611a37565b5b828202905092915050565b60006119b7826119ca565b9050919050565b60008115159050919050565b600073ffffffffffffffffffffffffffffffffffffffff82169050919050565b6000819050919050565b600063ffffffff82169050919050565b60005b83811015611a22578082015181840152602081019050611a07565b83811115611a31576000848401525b50505050565b7f4e487b7100000000000000000000000000000000000000000000000000000000600052601160045260246000fd5b7f4e487b7100000000000000000000000000000000000000000000000000000000600052601260045260246000fd5b6000601f19601f8301169050919050565b60008160011c9050919050565b7f4f776e61626c653a206e6577206f776e657220697320746865207a65726f206160008201527f6464726573730000000000000000000000000000000000000000000000000000602082015250565b7f416464726573733a20696e73756666696369656e742062616c616e636520666f60008201527f722063616c6c0000000000000000000000000000000000000000000000000000602082015250565b7f546f6b656e2072617465206d7573742062652067726561746572207468616e2060008201527f7a65726f21000000000000000000000000000000000000000000000000000000602082015250565b7f496e697469616c697a61626c653a20636f6e747261637420697320616c72656160008201527f647920696e697469616c697a6564000000000000000000000000000000000000602082015250565b7f4f776e61626c653a2063616c6c6572206973206e6f7420746865206f776e6572600082015250565b7f546f6b656e20616d6f756e74206d75737420626520677265617465722074686160008201527f6e207a65726f2100000000000000000000000000000000000000000000000000602082015250565b50565b7f416464726573733a2063616c6c20746f206e6f6e2d636f6e7472616374000000600082015250565b7f496e697469616c697a61626c653a20636f6e7472616374206973206e6f74206960008201527f6e697469616c697a696e67000000000000000000000000000000000000000000602082015250565b7f54776f2065786368616e676520746f6b656e206d75737420626520646966666560008201527f72656e7421000000000000000000000000000000000000000000000000000000602082015250565b7f5361666545524332303a204552433230206f7065726174696f6e20646964206e60008201527f6f74207375636365656400000000000000000000000000000000000000000000602082015250565b7f457468657220616d6f756e74206d75737420626520677265617465722074686160008201527f6e207a65726f2100000000000000000000000000000000000000000000000000602082015250565b7f5472616e73666572206f7574636f6d6520746f6b656e206661696c6564210000600082015250565b611e01816119ac565b8114611e0c57600080fd5b50565b611e18816119be565b8114611e2357600080fd5b50565b611e2f816119ea565b8114611e3a57600080fd5b50565b611e46816119f4565b8114611e5157600080fd5b5056fea2646970667358221220ee88a8e7eb2ee4a94b6fc831e86cd4f2cec72167f5de0455a3adcc35e7e32dec64736f6c63430008040033",
  "linkReferences": {},
  "deployedLinkReferences": {}
}